:100000000C945B000C9402020C941F020C9483006D
:100010000C9483000C9483000C9483000C94830054
:100020000C9483000C9483000C9483000C94830044
:100030000C9483000C9483000C9483000C94830034
:100040000C943C020C9483000C9454040C94830094
:100050000C9483000C9483000C9483000C94830014
:100060000C9483000C948300000024272A000025B0
:10007000282B000023262904040404040404040299
:100080000202020202030303030303010204081035
:100090002040800102040810200102040810200002
:1000A0000000070002010000030406000000000039
:1000B00000000000F90011241FBECFEFD4E0DEBF26
:1000C000CDBF11E0A0E0B1E0EAEFF9E002C0059099
:1000D0000D92A830B107D9F711E0A8E0B1E001C056
:1000E0001D92A03AB107E1F710E0C6EBD0E004C0E2
:1000F0002297FE010E94F704C43BD107C9F70E9472
:10010000F2000C94FB040C9400000F931F930AE080
:1001100011E0BC01C8010E94E50120E030E040E2AE
:1001200050E060E070E0C8010E94ED011F910F9166
:1001300008951F93CF93DF938AE091E00E94070117
:10014000882389F18AE091E00E94040182379105B9
:1001500051F510E0C0E0D4E0812F0E9410039E0111
:10016000281B390BC90130930901209308010E9413
:1001700085001F5F163081F712E0812F0E949703E0
:1001800090930901809308010E9485001F5F1E3033
:10019000A1F78AE091E00E940F0165E070E080E045
:1001A00090E00E94AC02DF91CF911F91089540E052
:1001B00052EC61E070E08AE091E00E940A0161E0A7
:1001C0008DE00E944C0368E572E080E090E00E94C0
:1001D000AC0260E08DE00E944C0361E08DE00E9483
:1001E0002E0308950E94D6020E94D7000E94990013
:1001F000FDCF85E091E090930B0180930A01089573
:10020000862F0E941C0408950E94350408950E94C0
:1002100024040895CB01BA010E94E30308950F93CB
:100220001F938C01DC01ED91FC910190F081E02D98
:100230006DE00995D801ED91FC910190F081E02DE0
:100240006AE0C80109951F910F9108952F923F927E
:100250004F925F926F927F928F929F92AF92BF92D6
:10026000CF92DF92EF92FF920F931F93DF93CF9382
:10027000CDB7DEB7A0970FB6F894DEBF0FBECDBFE7
:100280001C016A017B01411551056105710549F4A5
:10029000DC01ED91FC910190F081E02D60E3099586
:1002A00054C0882499245401422E5524662477246E
:1002B00001E010E00C0F1D1F080D191DC701B6014C
:1002C000A30192010E94A404F80160830894811C98
:1002D000911CA11CB11CC701B601A30192010E948F
:1002E000A404C901DA016C017D01C114D104E10447
:1002F000F104F1F681E0E82EF12CEC0EFD1EE80C85
:10030000F91C3E010894611C711CD501C4010197C0
:10031000A109B1096C01C818D90814C0F601EE0D85
:10032000FF1D60816A3010F4605D01C0695CD1011D
:10033000ED91FC910190F081E02DC10109950894A7
:10034000E108F1086E147F0449F7A0960FB6F894FF
:10035000DEBF0FBECDBFCF91DF911F910F91FF90F8
:10036000EF90DF90CF90BF90AF909F908F907F9055
:100370006F905F904F903F902F900895EF92FF9273
:100380000F931F93CF93DF93EC017A018B0177FFDB
:100390000FC0E881F9810190F081E02D6DE20995AF
:1003A00010950095F094E094E11CF11C011D111DC5
:1003B0002AE0B801A701CE010E942601DF91CF916A
:1003C0001F910F91FF90EF900895AB01662757FDA5
:1003D0006095762F0E94BE010895DC01211531053C
:1003E00041F4ED91FC910190F081E02D642F09958D
:1003F00008952A30310519F40E94BE0108950E9423
:10040000260108951F920F920FB60F9211248F9319
:100410009F93EF93FF9380910C0190910D01892B95
:1004200029F0E0910C01F0910D010995FF91EF91F8
:100430009F918F910F900FBE0F901F9018951F9254
:100440000F920FB60F9211248F939F93EF93FF9308
:1004500080910E0190910F01892B29F0E0910E01FE
:10046000F0910F010995FF91EF919F918F910F905E
:100470000FBE0F901F9018951F920F920FB60F92FC
:1004800011242F938F939F93AF93BF93809110016B
:1004900090911101A0911201B09113010196A11D3B
:1004A000B11D8093100190931101A0931201B0939C
:1004B00013018091140190911501A0911601B09142
:1004C00017018050904CAF4FBF4F80931401909311
:1004D0001501A0931601B093170127C08091140154
:1004E00090911501A0911601B091170180589E437B
:1004F000A040B0408093140190931501A093160181
:10050000B09317018091180190911901A0911A01DF
:10051000B0911B010196A11DB11D8093180190930C
:100520001901A0931A01B0931B01809114019091BD
:100530001501A0911601B091170181589E43A0406A
:10054000B04060F6BF91AF919F918F912F910F9026
:100550000FBE0F901F901895EF92FF920F931F936D
:100560007B018C018FB7F8944091180150911901CB
:1005700060911A0170911B018FBF2FB7F894809181
:10058000180190911901A0911A01B0911B012FBF80
:10059000841B950BA60BB70BE816F9060A071B0779
:1005A00060F71F910F91FF90EF900895789484B5B4
:1005B000826084BD84B5816084BD85B5826085BD5F
:1005C00085B5816085BDEEE6F0E080818160808345
:1005D000E1E8F0E0808182608083808181608083B7
:1005E000E0E8F0E0808181608083E1EBF0E08081F1
:1005F00084608083E0EBF0E0808181608083EAE7C3
:10060000F0E080818460808380818260808380814B
:10061000816080838081806880831092C10008950A
:100620008F70909100019295990F990F907C982B63
:1006300090937C0080917A00806480937A0080910E
:100640007A0086FDFCCF2091780040917900942FAC
:1006500080E030E0282B392BC9010895282F30E0A5
:10066000C90185579F4FFC01949129583F4FF901CB
:100670008491882381F0E82FF0E0E859FF4FE4915E
:10068000F0E0662329F48081909589238083089582
:100690008081892B80830895482F50E0CA018156BC
:1006A0009F4FFC012491CA0185579F4FFC019491F3
:1006B00049585F4FFA0134913323C1F1222331F1BC
:1006C000233021F4809180008F7705C0243031F4ED
:1006D000809180008F7D8093800018C0213019F4B4
:1006E00084B58F7704C0223021F484B58F7D84BD1A
:1006F0000DC0263021F48091B0008F7705C02730DF
:1007000029F48091B0008F7D8093B000E32FF0E05A
:10071000E359FF4FE491F0E0662329F4808190953E
:100720008923808308958081892B80830895482FB1
:1007300050E0CA0181569F4FFC012491CA018557A0
:100740009F4FFC01949149585F4FFA013491332334
:1007500019F420E030E035C0222331F1233021F4B8
:10076000809180008F7705C0243031F48091800023
:100770008F7D8093800018C0213019F484B58F7765
:1007800004C0223021F484B58F7D84BD0DC0263095
:1007900021F48091B0008F7705C0273029F4809133
:1007A000B0008F7D8093B000E32FF0E0EE58FF4F54
:1007B000E491F0E0808120E030E0892311F021E035
:1007C00030E0C9010895EF92FF920F931F937B01D0
:1007D0008C0122E030E040E050E00E94C604205C42
:1007E0003D4B404F5F4FCA01B901A80197010E94DC
:1007F000C604C901DA010197A109B109292F3A2FCD
:100800004B2F552747FD5A950196A11DB11D2093E9
:10081000C50081508093C400E1ECF0E080818061EC
:1008200080838081886080838081806880831F913D
:100830000F91FF90EF900895982F8091C00085FF51
:10084000FCCF9093C600089580911C0190911D01EA
:1008500080589F4F20911E0130911F01821B930BE6
:1008600060E870E00E949104089540911E0150914B
:100870001F0180911C0190911D018417950719F4A7
:100880002FEF3FEF0FC0FA01E05EFE4F2081CA015B
:10089000019660E870E00E94910490931F0180939C
:1008A0001E0130E0C90108951F920F920FB60F92FA
:1008B00011242F933F934F935F936F937F938F9365
:1008C0009F93AF93BF93EF93FF934091C600E09146
:1008D0001C01F0911D01CF01019660E870E00E94BB
:1008E00091049C0180911E0190911F0128173907E6
:1008F00039F0E05EFE4F408330931D0120931C01D0
:10090000FF91EF91BF91AF919F918F917F916F91E7
:100910005F914F913F912F910F900FBE0F901F90BD
:10092000189597FB092E07260AD077FD04D049D0E9
:1009300006D000201AF4709561957F4F0895F6F760
:10094000909581959F4F0895A1E21A2EAA1BBB1B7B
:10095000FD010DC0AA1FBB1FEE1FFF1FA217B3078B
:10096000E407F50720F0A21BB30BE40BF50B661FA1
:10097000771F881F991F1A9469F760957095809565
:1009800090959B01AC01BD01CF01089597FB092E05
:1009900005260ED057FD04D0D7DF0AD0001C38F44E
:1009A00050954095309521953F4F4F4F5F4F08959B
:1009B000F6F790958095709561957F4F8F4F9F4F7B
:1009C0000895AA1BBB1B51E107C0AA1FBB1FA61796
:1009D000B70710F0A61BB70B881F991F5A95A9F7E8
:1009E00080959095BC01CD010895EE0FFF1F0590F5
:0A09F000F491E02D0994F894FFCF74
:0809FA000100000000000100F3
:00000001FF
